:1000000012C02AC029C028C027C026C025C0B9C038
:100010008FC022C021C020C01FC01EC01DC01CC078
:100020001BC01AC019C011241FBECFEDCDBF10E0F8
:10003000A0E6B0E0ECE6F2E002C005900D92A8392F
:10004000B107D9F720E0A8E9B0E001C01D92AE39B0
:10005000B207E1F7BDD008C1D3CF12B883E389B9A5
:1000600088E98AB98EE083B908955D9BFECF8CB98B
:1000700008955F9BFECF8CB1089590919D00809173
:100080009C00981789F020919C0030E02F5F3F4F33
:100090002F703327E0919C00F0E0E957FF4F8081FB
:1000A00020939C0090E0089580E091E00895E5DFC2
:1000B000811521E09207D9F30895DFDF811521E052
:1000C0009207D9F3089520919B0030E02F5F3F4FB6
:1000D0002F703327422F90919A004917E1F3E09156
:1000E0009B00F0E0E958FF4F808320939B00559AD6
:1000F0000895E9DF80E090E00895CF93DF93EC016D
:100100008991882311F0DFDFFBCFDF91CF91089534
:10011000CF93DF93EC01CE01FE012491222329F03D
:100120002196FC018491CFDFF6CFDF91CF91089526
:100130001F920F920FB60F9211248F939F93EF93FC
:10014000FF9390919B0080919A00981781F0809185
:100150009A0090E001968F709927E0919A00F0E064
:10016000E958FF4F90819CB980939A0001C055983F
:10017000FF91EF919F918F910F900FBE0F901F9065
:1001800018951F920F920FB60F9211242F938F93F1
:100190009F93EF93FF9380919D0090E001968F7065
:1001A000992720919C00281749F0E0919D00F0E0EC
:1001B0009CB1E957FF4F908380939D00FF91EF9191
:1001C0009F918F912F910F900FBE0F901F901895B8
:1001D00044DF84E190E02FE73AE146E021503040EF
:1001E0004040E1F700C000000197A9F7C0E080910E
:1001F0006B00C81740F4EC2FF0E0E459FF4F80810A
:1002000062DFCF5FF4CF8FE79AE126E08150904024
:100210002040E1F700C000003FE74AE186E03150AE
:1002200040408040E1F700C000009FE72AE136E04F
:10023000915020403040E1F700C000004FE78AE1D4
:1002400096E0415080409040E1F700C00000C0E0DF
:1002500080916000C81750F6EC2FF0E0EF59FF4F87
:0C026000808131DFCF5FF4CFF894FFCF36
:10026C000A7EFF060D000000FEEEEF0A7EFF06037D
:10027C00000001FEF7EF0178787878787878787854
:10028C0078787878787878787878787878787878E2
:08029C00787878787878780012
:00000001FF
